{
  "contractName": "RNGToken",
  "abi": [
    {
      "inputs": [],
      "stateMutability": "nonpayable",
      "type": "constructor"
    },
    {
      "anonymous": false,
      "inputs": [
        {
          "indexed": true,
          "internalType": "address",
          "name": "owner",
          "type": "address"
        },
        {
          "indexed": true,
          "internalType": "address",
          "name": "spender",
          "type": "address"
        },
        {
          "indexed": false,
          "internalType": "uint256",
          "name": "valueis",
          "type": "uint256"
        }
      ],
      "name": "Approval",
      "type": "event"
    },
    {
      "anonymous": false,
      "inputs": [
        {
          "indexed": true,
          "internalType": "address",
          "name": "from",
          "type": "address"
        },
        {
          "indexed": true,
          "internalType": "address",
          "name": "to",
          "type": "address"
        },
        {
          "indexed": false,
          "internalType": "uint256",
          "name": "value",
          "type": "uint256"
        }
      ],
      "name": "Transfer",
      "type": "event"
    },
    {
      "inputs": [
        {
          "internalType": "address",
          "name": "",
          "type": "address"
        },
        {
          "internalType": "address",
          "name": "",
          "type": "address"
        }
      ],
      "name": "allowance",
      "outputs": [
        {
          "internalType": "uint256",
          "name": "",
          "type": "uint256"
        }
      ],
      "stateMutability": "view",
      "type": "function",
      "constant": true
    },
    {
      "inputs": [
        {
          "internalType": "address",
          "name": "",
          "type": "address"
        }
      ],
      "name": "balanceOf",
      "outputs": [
        {
          "internalType": "uint256",
          "name": "",
          "type": "uint256"
        }
      ],
      "stateMutability": "view",
      "type": "function",
      "constant": true
    },
    {
      "inputs": [],
      "name": "decimals",
      "outputs": [
        {
          "internalType": "uint8",
          "name": "",
          "type": "uint8"
        }
      ],
      "stateMutability": "view",
      "type": "function",
      "constant": true
    },
    {
      "inputs": [],
      "name": "name",
      "outputs": [
        {
          "internalType": "string",
          "name": "",
          "type": "string"
        }
      ],
      "stateMutability": "view",
      "type": "function",
      "constant": true
    },
    {
      "inputs": [],
      "name": "symbol",
      "outputs": [
        {
          "internalType": "string",
          "name": "",
          "type": "string"
        }
      ],
      "stateMutability": "view",
      "type": "function",
      "constant": true
    },
    {
      "inputs": [],
      "name": "tokenOwner",
      "outputs": [
        {
          "internalType": "address",
          "name": "",
          "type": "address"
        }
      ],
      "stateMutability": "view",
      "type": "function",
      "constant": true
    },
    {
      "inputs": [
        {
          "internalType": "address",
          "name": "account",
          "type": "address"
        },
        {
          "internalType": "uint256",
          "name": "amount",
          "type": "uint256"
        }
      ],
      "name": "mint",
      "outputs": [],
      "stateMutability": "nonpayable",
      "type": "function"
    },
    {
      "inputs": [
        {
          "internalType": "address",
          "name": "account",
          "type": "address"
        },
        {
          "internalType": "uint256",
          "name": "amount",
          "type": "uint256"
        }
      ],
      "name": "burn",
      "outputs": [],
      "stateMutability": "nonpayable",
      "type": "function"
    },
    {
      "inputs": [
        {
          "internalType": "address",
          "name": "owner",
          "type": "address"
        }
      ],
      "name": "getBalanceOf",
      "outputs": [
        {
          "internalType": "uint256",
          "name": "",
          "type": "uint256"
        }
      ],
      "stateMutability": "view",
      "type": "function",
      "constant": true
    },
    {
      "inputs": [
        {
          "internalType": "address",
          "name": "owner",
          "type": "address"
        },
        {
          "internalType": "address",
          "name": "spender",
          "type": "address"
        }
      ],
      "name": "getAllowance",
      "outputs": [
        {
          "internalType": "uint256",
          "name": "",
          "type": "uint256"
        }
      ],
      "stateMutability": "view",
      "type": "function",
      "constant": true
    },
    {
      "inputs": [
        {
          "internalType": "address",
          "name": "spender",
          "type": "address"
        },
        {
          "internalType": "uint256",
          "name": "value",
          "type": "uint256"
        }
      ],
      "name": "approve",
      "outputs": [
        {
          "internalType": "bool",
          "name": "",
          "type": "bool"
        }
      ],
      "stateMutability": "nonpayable",
      "type": "function"
    },
    {
      "inputs": [
        {
          "internalType": "address",
          "name": "spender",
          "type": "address"
        },
        {
          "internalType": "uint256",
          "name": "addedValue",
          "type": "uint256"
        }
      ],
      "name": "increaseAllowance",
      "outputs": [
        {
          "internalType": "bool",
          "name": "",
          "type": "bool"
        }
      ],
      "stateMutability": "nonpayable",
      "type": "function"
    },
    {
      "inputs": [
        {
          "internalType": "address",
          "name": "spender",
          "type": "address"
        },
        {
          "internalType": "uint256",
          "name": "subValue",
          "type": "uint256"
        }
      ],
      "name": "decreaseAllowance",
      "outputs": [
        {
          "internalType": "bool",
          "name": "",
          "type": "bool"
        }
      ],
      "stateMutability": "nonpayable",
      "type": "function"
    },
    {
      "inputs": [
        {
          "internalType": "address",
          "name": "to",
          "type": "address"
        },
        {
          "internalType": "uint256",
          "name": "value",
          "type": "uint256"
        }
      ],
      "name": "transfer",
      "outputs": [
        {
          "internalType": "bool",
          "name": "",
          "type": "bool"
        }
      ],
      "stateMutability": "nonpayable",
      "type": "function"
    },
    {
      "inputs": [
        {
          "internalType": "address",
          "name": "from",
          "type": "address"
        },
        {
          "internalType": "address",
          "name": "to",
          "type": "address"
        },
        {
          "internalType": "uint256",
          "name": "value",
          "type": "uint256"
        }
      ],
      "name": "transferFrom",
      "outputs": [
        {
          "internalType": "bool",
          "name": "",
          "type": "bool"
        }
      ],
      "stateMutability": "nonpayable",
      "type": "function"
    }
  ],
  "bytecode": "0x60806040523480156200001157600080fd5b506040518060400160405280601081526020017f526f79616c4e6576657247697665557000000000000000000000000000000000815250600090805190602001906200005f9291906200018a565b506040518060400160405280600381526020017f524e47000000000000000000000000000000000000000000000000000000000081525060019080519060200190620000ad9291906200018a565b506012600260006101000a81548160ff021916908360ff160217905550600260009054906101000a900460ff16600a620000e8919062000295565b6103e8620000f79190620003d2565b600381905550600354600560003373ffffffffffffffffffffffffffffffffffffffff1673ffffffffffffffffffffffffffffffffffffffff1681526020019081526020016000208190555033600460006101000a81548173ffffffffffffffffffffffffffffffffffffffff021916908373ffffffffffffffffffffffffffffffffffffffff160217905550620004eb565b82805462000198906200044a565b90600052602060002090601f016020900481019282620001bc576000855562000208565b82601f10620001d757805160ff191683800117855562000208565b8280016001018555821562000208579182015b8281111562000207578251825591602001919060010190620001ea565b5b5090506200021791906200021b565b5090565b5b80821115620002365760008160009055506001016200021c565b5090565b6000808291508390505b60018511156200028c5780860481111562000264576200026362000480565b5b6001851615620002745780820291505b80810290506200028485620004de565b945062000244565b94509492505050565b6000620002a28262000433565b9150620002af836200043d565b9250620002de7fffffffffffffffffffffffffffffffffffffffffffffffffffffffffffffffff8484620002e6565b905092915050565b600082620002f85760019050620003cb565b81620003085760009050620003cb565b81600181146200032157600281146200032c5762000362565b6001915050620003cb565b60ff84111562000341576200034062000480565b5b8360020a9150848211156200035b576200035a62000480565b5b50620003cb565b5060208310610133831016604e8410600b84101617156200039c5782820a90508381111562000396576200039562000480565b5b620003cb565b620003ab84848460016200023a565b92509050818404811115620003c557620003c462000480565b5b81810290505b9392505050565b6000620003df8262000433565b9150620003ec8362000433565b9250817fffffffffffffffffffffffffffffffffffffffffffffffffffffffffffffffff048311821515161562000428576200042762000480565b5b828202905092915050565b6000819050919050565b600060ff82169050919050565b600060028204905060018216806200046357607f821691505b602082108114156200047a5762000479620004af565b5b50919050565b7f4e487b7100000000000000000000000000000000000000000000000000000000600052601160045260246000fd5b7f4e487b7100000000000000000000000000000000000000000000000000000000600052602260045260246000fd5b60008160011c9050919050565b61170a80620004fb6000396000f3fe608060405234801561001057600080fd5b50600436106100f55760003560e01c806370a0823111610097578063a3e6761011610066578063a3e67610146102ac578063a457c2d7146102ca578063a9059cbb146102fa578063dd62ed3e1461032a576100f5565b806370a082311461021257806395d89b41146102425780639b96eece146102605780639dc29fac14610290576100f5565b806323b872dd116100d357806323b872dd14610178578063313ce567146101a857806339509351146101c657806340c10f19146101f6576100f5565b806306fdde03146100fa578063095ea7b3146101185780630af4187d14610148575b600080fd5b61010261035a565b60405161010f9190611436565b60405180910390f35b610132600480360381019061012d919061132c565b6103e8565b60405161013f919061141b565b60405180910390f35b610162600480360381019061015d91906112a1565b610513565b60405161016f9190611478565b60405180910390f35b610192600480360381019061018d91906112dd565b61059a565b60405161019f919061141b565b60405180910390f35b6101b061085a565b6040516101bd9190611493565b60405180910390f35b6101e060048036038101906101db919061132c565b61086d565b6040516101ed919061141b565b60405180910390f35b610210600480360381019061020b919061132c565b610a26565b005b61022c60048036038101906102279190611278565b610bc9565b6040516102399190611478565b60405180910390f35b61024a610be1565b6040516102579190611436565b60405180910390f35b61027a60048036038101906102759190611278565b610c6f565b6040516102879190611478565b60405180910390f35b6102aa60048036038101906102a5919061132c565b610cb8565b005b6102b4610ea7565b6040516102c19190611400565b60405180910390f35b6102e460048036038101906102df919061132c565b610ecd565b6040516102f1919061141b565b60405180910390f35b610314600480360381019061030f919061132c565b611086565b604051610321919061141b565b60405180910390f35b610344600480360381019061033f91906112a1565b611229565b6040516103519190611478565b60405180910390f35b60008054610367906115dc565b80601f0160208091040260200160405190810160405280929190818152602001828054610393906115dc565b80156103e05780601f106103b5576101008083540402835291602001916103e0565b820191906000526020600020905b8154815290600101906020018083116103c357829003601f168201915b505050505081565b60008073ffffffffffffffffffffffffffffffffffffffff168373ffffffffffffffffffffffffffffffffffffffff16141561042357600080fd5b81600660003373ffffffffffffffffffffffffffffffffffffffff1673ffffffffffffffffffffffffffffffffffffffff16815260200190815260200160002060008573ffffffffffffffffffffffffffffffffffffffff1673ffffffffffffffffffffffffffffffffffffffff168152602001908152602001600020819055508273ffffffffffffffffffffffffffffffffffffffff163373ffffffffffffffffffffffffffffffffffffffff167f8c5be1e5ebec7d5bd14f71427d1e84f3dd0314c0f7b2291e5b200ac8c7c3b925846040516105019190611478565b60405180910390a36001905092915050565b6000600660008473ffffffffffffffffffffffffffffffffffffffff1673ffffffffffffffffffffffffffffffffffffffff16815260200190815260200160002060008373ffffffffffffffffffffffffffffffffffffffff1673ffffffffffffffffffffffffffffffffffffffff16815260200190815260200160002054905092915050565b6000600560008573ffffffffffffffffffffffffffffffffffffffff1673ffffffffffffffffffffffffffffffffffffffff168152602001908152602001600020548211156105e857600080fd5b600660008573ffffffffffffffffffffffffffffffffffffffff1673ffffffffffffffffffffffffffffffffffffffff16815260200190815260200160002060003373ffffffffffffffffffffffffffffffffffffffff1673ffffffffffffffffffffffffffffffffffffffff1681526020019081526020016000205482111561067157600080fd5b600073ffffffffffffffffffffffffffffffffffffffff168373ffffffffffffffffffffffffffffffffffffffff1614156106ab57600080fd5b81600560008673ffffffffffffffffffffffffffffffffffffffff1673ffffffffffffffffffffffffffffffffffffffff16815260200190815260200160002060008282546106fa9190611520565b9250508190555081600560008573ffffffffffffffffffffffffffffffffffffffff1673ffffffffffffffffffffffffffffffffffffffff168152602001908152602001600020600082825461075091906114ca565b9250508190555081600660008673ffffffffffffffffffffffffffffffffffffffff1673ffffffffffffffffffffffffffffffffffffffff16815260200190815260200160002060003373ffffffffffffffffffffffffffffffffffffffff1673ffffffffffffffffffffffffffffffffffffffff16815260200190815260200160002060008282546107e39190611520565b925050819055508273ffffffffffffffffffffffffffffffffffffffff168473ffffffffffffffffffffffffffffffffffffffff167fddf252ad1be2c89b69c2b068fc378daa952ba7f163c4a11628f55a4df523b3ef846040516108479190611478565b60405180910390a3600190509392505050565b600260009054906101000a900460ff1681565b60008073ffffffffffffffffffffffffffffffffffffffff168373ffffffffffffffffffffffffffffffffffffffff1614156108a857600080fd5b81600660003373ffffffffffffffffffffffffffffffffffffffff1673ffffffffffffffffffffffffffffffffffffffff16815260200190815260200160002060008573ffffffffffffffffffffffffffffffffffffffff1673ffffffffffffffffffffffffffffffffffffffff168152602001908152602001600020600082825461093491906114ca565b925050819055508273ffffffffffffffffffffffffffffffffffffffff163373ffffffffffffffffffffffffffffffffffffffff167f8c5be1e5ebec7d5bd14f71427d1e84f3dd0314c0f7b2291e5b200ac8c7c3b925600660003373ffffffffffffffffffffffffffffffffffffffff1673ffffffffffffffffffffffffffffffffffffffff16815260200190815260200160002060008773ffffffffffffffffffffffffffffffffffffffff1673ffffffffffffffffffffffffffffffffffffffff16815260200190815260200160002054604051610a149190611478565b60405180910390a36001905092915050565b600460009054906101000a900473ffffffffffffffffffffffffffffffffffffffff1673ffffffffffffffffffffffffffffffffffffffff163373ffffffffffffffffffffffffffffffffffffffff1614610ab6576040517f08c379a0000000000000000000000000000000000000000000000000000000008152600401610aad90611458565b60405180910390fd5b600073ffffffffffffffffffffffffffffffffffffffff168273ffffffffffffffffffffffffffffffffffffffff161415610af057600080fd5b8060036000828254610b0291906114ca565b9250508190555080600560008473ffffffffffffffffffffffffffffffffffffffff1673ffffffffffffffffffffffffffffffffffffffff1681526020019081526020016000206000828254610b5891906114ca565b925050819055508173ffffffffffffffffffffffffffffffffffffffff16600073ffffffffffffffffffffffffffffffffffffffff167fddf252ad1be2c89b69c2b068fc378daa952ba7f163c4a11628f55a4df523b3ef83604051610bbd9190611478565b60405180910390a35050565b60056020528060005260406000206000915090505481565b60018054610bee906115dc565b80601f0160208091040260200160405190810160405280929190818152602001828054610c1a906115dc565b8015610c675780601f10610c3c57610100808354040283529160200191610c67565b820191906000526020600020905b815481529060010190602001808311610c4a57829003601f168201915b505050505081565b6000600560008373ffffffffffffffffffffffffffffffffffffffff1673ffffffffffffffffffffffffffffffffffffffff168152602001908152602001600020549050919050565b600460009054906101000a900473ffffffffffffffffffffffffffffffffffffffff1673ffffffffffffffffffffffffffffffffffffffff163373ffffffffffffffffffffffffffffffffffffffff1614610d48576040517f08c379a0000000000000000000000000000000000000000000000000000000008152600401610d3f90611458565b60405180910390fd5b600073ffffffffffffffffffffffffffffffffffffffff168273ffffffffffffffffffffffffffffffffffffffff161415610d8257600080fd5b600560008373ffffffffffffffffffffffffffffffffffffffff1673ffffffffffffffffffffffffffffffffffffffff16815260200190815260200160002054811115610dce57600080fd5b8060036000828254610de09190611520565b9250508190555080600560008473ffffffffffffffffffffffffffffffffffffffff1673ffffffffffffffffffffffffffffffffffffffff1681526020019081526020016000206000828254610e369190611520565b92505081905550600073ffffffffffffffffffffffffffffffffffffffff168273ffffffffffffffffffffffffffffffffffffffff167fddf252ad1be2c89b69c2b068fc378daa952ba7f163c4a11628f55a4df523b3ef83604051610e9b9190611478565b60405180910390a35050565b600460009054906101000a900473ffffffffffffffffffffffffffffffffffffffff1681565b60008073ffffffffffffffffffffffffffffffffffffffff168373ffffffffffffffffffffffffffffffffffffffff161415610f0857600080fd5b81600660003373ffffffffffffffffffffffffffffffffffffffff1673ffffffffffffffffffffffffffffffffffffffff16815260200190815260200160002060008573ffffffffffffffffffffffffffffffffffffffff1673ffffffffffffffffffffffffffffffffffffffff1681526020019081526020016000206000828254610f949190611520565b925050819055508273ffffffffffffffffffffffffffffffffffffffff163373ffffffffffffffffffffffffffffffffffffffff167f8c5be1e5ebec7d5bd14f71427d1e84f3dd0314c0f7b2291e5b200ac8c7c3b925600660003373ffffffffffffffffffffffffffffffffffffffff1673ffffffffffffffffffffffffffffffffffffffff16815260200190815260200160002060008773ffffffffffffffffffffffffffffffffffffffff1673ffffffffffffffffffffffffffffffffffffffff168152602001908152602001600020546040516110749190611478565b60405180910390a36001905092915050565b6000600560003373ffffffffffffffffffffffffffffffffffffffff1673ffffffffffffffffffffffffffffffffffffffff168152602001908152602001600020548211156110d457600080fd5b600073ffffffffffffffffffffffffffffffffffffffff168373ffffffffffffffffffffffffffffffffffffffff16141561110e57600080fd5b81600560003373ffffffffffffffffffffffffffffffffffffffff1673ffffffffffffffffffffffffffffffffffffffff168152602001908152602001600020600082825461115d9190611520565b9250508190555081600560008573ffffffffffffffffffffffffffffffffffffffff1673ffffffffffffffffffffffffffffffffffffffff16815260200190815260200160002060008282546111b391906114ca565b925050819055508273ffffffffffffffffffffffffffffffffffffffff163373ffffffffffffffffffffffffffffffffffffffff167fddf252ad1be2c89b69c2b068fc378daa952ba7f163c4a11628f55a4df523b3ef846040516112179190611478565b60405180910390a36001905092915050565b6006602052816000526040600020602052806000526040600020600091509150505481565b60008135905061125d816116a6565b92915050565b600081359050611272816116bd565b92915050565b60006020828403121561128a57600080fd5b60006112988482850161124e565b91505092915050565b600080604083850312156112b457600080fd5b60006112c28582860161124e565b92505060206112d38582860161124e565b9150509250929050565b6000806000606084860312156112f257600080fd5b60006113008682870161124e565b93505060206113118682870161124e565b925050604061132286828701611263565b9150509250925092565b6000806040838503121561133f57600080fd5b600061134d8582860161124e565b925050602061135e85828601611263565b9150509250929050565b61137181611554565b82525050565b61138081611566565b82525050565b6000611391826114ae565b61139b81856114b9565b93506113ab8185602086016115a9565b6113b48161166c565b840191505092915050565b60006113cc6013836114b9565b91506113d78261167d565b602082019050919050565b6113eb81611592565b82525050565b6113fa8161159c565b82525050565b60006020820190506114156000830184611368565b92915050565b60006020820190506114306000830184611377565b92915050565b600060208201905081810360008301526114508184611386565b905092915050565b60006020820190508181036000830152611471816113bf565b9050919050565b600060208201905061148d60008301846113e2565b92915050565b60006020820190506114a860008301846113f1565b92915050565b600081519050919050565b600082825260208201905092915050565b60006114d582611592565b91506114e083611592565b9250827fffffffffffffffffffffffffffffffffffffffffffffffffffffffffffffffff038211156115155761151461160e565b5b828201905092915050565b600061152b82611592565b915061153683611592565b9250828210156115495761154861160e565b5b828203905092915050565b600061155f82611572565b9050919050565b60008115159050919050565b600073ffffffffffffffffffffffffffffffffffffffff82169050919050565b6000819050919050565b600060ff82169050919050565b60005b838110156115c75780820151818401526020810190506115ac565b838111156115d6576000848401525b50505050565b600060028204905060018216806115f457607f821691505b602082108114156116085761160761163d565b5b50919050565b7f4e487b7100000000000000000000000000000000000000000000000000000000600052601160045260246000fd5b7f4e487b7100000000000000000000000000000000000000000000000000000000600052602260045260246000fd5b6000601f19601f8301169050919050565b7f43616c6c6572206973206e6f74206f776e657200000000000000000000000000600082015250565b6116af81611554565b81146116ba57600080fd5b50565b6116c681611592565b81146116d157600080fd5b5056fea2646970667358221220e6ff6004fc1665b5a162dc53e0144f3d35a6451ea57fe958ae511fa9ab99288164736f6c63430008040033",
  "immutableReferences": {},
  "source": "// SPDX-License-Identifier: MIT\npragma solidity >=0.4.22 <0.9.0;\n\ncontract RNGToken {\n    string public name;\n    string public symbol;\n    uint8 public decimals;\n    uint256 private _totalSupply;\n    address public tokenOwner;\n    mapping(address => uint256) public balanceOf;\n    mapping(address => mapping(address => uint256)) public allowance;\n\n    event Transfer(address indexed from, address indexed to, uint256 value);\n\n    event Approval(\n        address indexed owner,\n        address indexed spender,\n        uint256 valueis\n    );\n\n    constructor() {\n        name = \"RoyalNeverGiveUp\";\n        symbol = \"RNG\";\n        decimals = 18;\n        _totalSupply = 1000 * 10**decimals;\n        balanceOf[msg.sender] = _totalSupply;\n        tokenOwner = msg.sender;\n    }\n\n    modifier onlyOwner() {\n        require(msg.sender == tokenOwner, \"Caller is not owner\");\n        _;\n    }\n\n    function mint(address account, uint256 amount) public onlyOwner {\n        require(account != address(0));\n        _totalSupply += amount;\n        balanceOf[account] += amount;\n        emit Transfer(address(0), account, amount);\n    }\n\n    function burn(address account, uint256 amount) public onlyOwner {\n        require(account != address(0));\n        require(amount <= balanceOf[account]);\n\n        _totalSupply -= amount;\n        balanceOf[account] -= amount;\n        emit Transfer(account, address(0), amount);\n    }\n\n    function getBalanceOf(address owner) public view returns (uint256) {\n        return balanceOf[owner];\n    }\n\n    function getAllowance(address owner, address spender)\n        public\n        view\n        returns (uint256)\n    {\n        return allowance[owner][spender];\n    }\n\n    function approve(address spender, uint256 value) public returns (bool) {\n        require(spender != address(0));\n        allowance[msg.sender][spender] = value;\n        emit Approval(msg.sender, spender, value);\n        return true;\n    }\n\n    function increaseAllowance(address spender, uint256 addedValue)\n        public\n        returns (bool)\n    {\n        require(spender != address(0));\n        allowance[msg.sender][spender] += addedValue;\n        emit Approval(msg.sender, spender, allowance[msg.sender][spender]);\n        return true;\n    }\n\n    function decreaseAllowance(address spender, uint256 subValue)\n        public\n        returns (bool)\n    {\n        require(spender != address(0));\n        allowance[msg.sender][spender] -= subValue;\n        emit Approval(msg.sender, spender, allowance[msg.sender][spender]);\n        return true;\n    }\n\n    function transfer(address to, uint256 value) public returns (bool) {\n        require(value <= balanceOf[msg.sender]);\n        require(to != address(0));\n\n        balanceOf[msg.sender] -= value;\n        balanceOf[to] += value;\n        emit Transfer(msg.sender, to, value);\n        return true;\n    }\n\n    function transferFrom(\n        address from,\n        address to,\n        uint256 value\n    ) public returns (bool) {\n        require(value <= balanceOf[from]);\n        require(value <= allowance[from][msg.sender]);\n        require(to != address(0));\n\n        balanceOf[from] -= value;\n        balanceOf[to] += value;\n        allowance[from][msg.sender] -= value;\n        emit Transfer(from, to, value);\n        return true;\n    }\n}\n",
  "sourcePath": "E:\\RNGToken\\contracts\\RNGToken.sol",
  "compiler": {
    "name": "solc",
    "version": "0.8.4+commit.c7e474f2.Emscripten.clang"
  },
  "schemaVersion": "3.4.2",
  "updatedAt": "2021-11-09T08:07:46.677Z",
  "networkType": "ethereum",
  "devdoc": {
    "kind": "dev",
    "methods": {},
    "version": 1
  },
  "userdoc": {
    "kind": "user",
    "methods": {},
    "version": 1
  }
}